:200000000040002081AD000001C9011001C9011001C9011001C9011001C9011001C9011030
:1C00200001C9011001C9011001C9011001C9011001C9011001C901103FC9011089
:20003C002DE9F04FA44C04F108012046ADF13C0D0AF0B2FB04F124000DF0DBF864220123DA
:20005C009E49E06004F14C000AF0BAFD9C4910201F220A2305F0D8F901260820ADF8180016
:20007C0000258DF829608246ADF8165031468DF82A600DF12902ADF81AA03220ADF81C003D
:20009C004FF4FA70ADF81E0040F2053000F028FE40F2063002210DF1160200F021FE40F275
:2000BC0007300D2104F13C0200F01AFE4FF44270092104F1180200F013FE4FF444703146E7
:2000DC000DF12A0200F00CFE40F21130022106AA00F006FE40F2123002210DF11A0200F005
:2000FC00FFFD40F21330022107AA00F0F9FD4FF4457002210DF11E0200F0F2FDD2482A4617
:20011C001523D2490090102005F07EF9A846374603208DF82B603346CD4D8DF82D004FF41E
:20013C0080628DF82C800DF12B068DF82E7029460096102005F068F90BA840F202423B4609
:20015C0000902946102005F05FF90DF12D0040F203423B4600902946102005F055F90DF174
:20017C002E0040F206423B4600902946102005F04BF9B848062101704078062801DA08F081
:20019C00B3FDB54E307880000DF05FF9B34DDFF8D0920028E86000F09880307880000DF03D
:2001BC0054F905F10C0700283968286100F08A80307880000DF049F9686120B938680BF0DD
:2001DC0085FB28697FE0E9684FF6FF700BF04AFB29694FF6FF700BF045FB69694FF6FF7047
:2001FC000BF040FB10200090D2490191D24905F16C021D2305F008F9D5F8881002200AF00A
:20021C009DFE6979AA7985F82010B5F8360185F8212005F11807388005F59E76EE61EB7945
:20023C0085F82C304FF0010C85F822C02E7A85F82D60B5F87601A8844046A86285F83810C7
:20025C0085F82EC085F83920B5F8A6212A8605F5D6726A6385F84430424685F83A2085F841
:20027C004560B5F8D631AB87286485F850C085F8462085F851C0B5F8F661A5F8486005F50A
:20029C00FE73EB646E7A85F85C6085F85220AB7A85F85D30B5F82662A5F8546005F1600166
:2002BC00A865032085F85EC00AF048FE484647610721817109E0C0460802002055D1000088
:2002DC00BD84011008460BF001FB22694F4604F1300004F110064546B861FE612AB1C04934
:2002FC0007F1600002230AF06BFCBE4E73783078A3B9203737620BF089FE06F15407CDF880
:20031C000080024606F14400019006F11C030297B5490393B378102005F076F8B349B44A32
:20033C00102005F071F8C44E06F1180006F10C0107F0C4FFC149B0600CF09AFFC04FB0685E
:20035C004FF4E0213A46521E0BF0F4FAB0684FF4E0213A460BF0EEFAC249C8222B4606F148
:20037C0024000AF02DFCC048706020780BF04EFEBE490246102005F047F8BD49102005F085
:20039C0043F81B224FF4A47310200092B949019305F03AF807F05CFEB8A009F0B5FC04F1A8
:2003BC007006A146F71C0D9704F500700C90A068B14A29464FF0FF3300F09AF95FEA000B4E
:2003DC00F5D0CDF8108005A80AA904AA0BF0B5FB002834D1BDF8140010282CD120789DF8D6
:2003FC002810884227D104990F78913F02D01F3F1CD020E048780E281DD1888842F20302AA
:20041C00824218D189680F78AFB9491C08A80A684968026008AF41603878B44908AA00F0F2
:20043C00FD003870102004F0EFFF04E001F10800097900F061F9049808B10CF0CBFF5FEADB
:20045C00DB705CD356E0C04628E80000158E000069340000AC170020694F0020DC0E0020B5
:20047C00D00B0020E0680CF0ACFB5FEA000A41D0BAF8000001283AD19AF80270B80808D391
:20049C007FA009F041FC52210CF0C2FB29460CF0BFFBF80808D37CA009F036FC51210CF00A
:2004BC00B7FB29460CF0B4FB78080AD379A009F02BFC63782BB101200CF002F828460BF087
:2004DC00FFFF380908D376A009F01EFC50210CF09FFB29460CF09CFB780908D373A009F04C
:2004FC0013FC4F210CF094FB29460CF091FB50460BF0ECF9E06800F003F90028B2D05FEA42
:20051C005B00FFF454AF484680782F46A4E00C99C95D0A2900F096800D290FD0E278402A12
:20053C0080F09880B154E0784B46401CE070987890E0C046B8E8000043BF00000FF2781AC2
:20055C003046032251460CF015F830B90D985BA102220CF00FF8002828D030465146032241
:20057C000CF008F840B90D9855A102220CF002F8002808BF53A017D03046514603220BF0BF
:20059C00F9FF98B90D9853A102220BF0F3FF68B970793038082806D8DFE800F02C1F1D1B92
:2005BC001917151311C04CA009F0AEFBE57030462946402208F0AAFE99F802004AE08020CF
:2005DC000CE040200AE0202008E0102006E0082004E0042002E0022000E0012020710AE0DB
:2005FC0075D000009008002017AF0000CDC9000010E900002571F179B079327A4B00303805
:20061C00607103EBC100737A8018410041F2D04201EBC001C9183046891AE18009F074FBC3
:20063C002FA009F071FBA1790CF0F2FA29460CF0EFFA2CA0B8E7C0464C190020E1B5000088
:20065C000E000580E57030462946402208F05EFE484680787F1CFFB2B8423FF758AFA570DD
:20067C00A5E6C04619CF0000B9C4000051880110C5AB001035B90010010000C048530A009A
:20069C004B45595F55500A004B45595F444F574E0A00C0464B45595F53454C4543540A00A5
:2006BC004B45595F4C4546540A00C0464B45595F52494748540A00C0415423004D5A00C0EC
:2006DC004D5900C00D0A32303139313233310D0A00C046C0485000C00D0A45520D0A00C034
:2006FC000D0A00C00D0A4F4B0D0A00C095B40010DFF800F0F99B0110DFF800F089840110D5
:20071C00DFF800F04FBF01102DE9F84FDFF81885DFF8181588F80000002008600821DFF8FA
:20073C00100501700D2141804FF408718180DFF80405DFF8041501608A7EDFF800050270E4
:20075C00FF2ACB7E437008BFFF2B0D7F85704E7FC6708F7F0771C97F417115D1FF2D08BF8A
:20077C00FF2E11D1FF2F08BFFF290DD1DFF8D0140A7802704A7842708A788270CA78C270C8
:20079C000A79027149794171DFF8B81402780A70FF2542784A7082788A70C278CA700279C1
:2007BC000A714079DFF8A02448710021DFF89C04057045708570C570057145711180DFF815
:2007DC009004DFF89014466BDFF88C247078087031781170B078DFF884140870B168087983
:2007FC00DFF87C14421E0A70F078DFF878140870F068DFF87414086008B90CF081F930696A
:20081C00DFF86844206008B90CF07AF92068DFF8607401688847216851F8042F38469047C4
:20083C00DFF85004DFF850143862DFF8500478627069086008B90CF063F9B069DFF84014F9
:20085C00086008B90CF05CF9DFF838B4DFF838649BF804000CF060FC306008B900F045B99E
:20087C009BF80500DFF824740CF056FC386008B9306837E19BF80600DFF814440CF04CFCF2
:20089C00206020B930680CF04FFC38682AE19BF80700DFF800940CF03FFCC9F8000038B96B
:2008BC0030680CF041FC38680CF03EFC206819E1DFF8A4130A789BF80000DFF8DCA3921C4C
:2008DC00504380B20CF028FCCAF8080058B930680CF02AFC38680CF027FC20680CF024FC1F
:2008FC00D9F80000FEE0DC480078002800F00281BBF80210DFF8A4B3484380B20CF00CFC42
:20091C00CBF8040078B930680CF00EFC38680CF00BFC20680CF008FCD9F800000CF004FC2D
:20093C00DAF80800DEE0CC4800780CF0F5FBDC49086080B930680CF0F7FB38680CF0F4FBB4
:20095C00D9F800000CF0F0FBDAF808000CF0ECFBDBF80400C6E0C0480078182148430CF049
:20097C00DBFBD04A1060B0B930680CF0DDFB38680CF0DAFB20680CF0D7FBD9F800000CF092
:20099C00D3FBDAF808000CF0CFFBDBF804000CF0CBFBC348A5E0B048007840010CF0BCFB40
:2009BC00C1490860D8B930680CF0BEFB38680CF0BBFB20680CF0B8FBD9F800000CF0B4FBC6
:2009DC00DAF808000CF0B0FBDBF804000CF0ACFBB34800680CF0A8FBB249086882E09E484B
:2009FC00007800010CF098FBB0490860F0B930680CF09AFB38680CF097FB20680CF094FB5F
:200A1C00D9F800000CF090FBDAF808000CF08CFBDBF804000CF088FBA14800680CF084FBE3
:200A3C00A04908680CF080FB9F485AE08A48007800010CF071FB9E49086018BB30680CF040
:200A5C0073FB38680CF070FB20680CF06DFBD9F800000CF069FBDAF808000CF065FBDBF8DF
:200A7C0004000CF061FB8E4800680CF05DFB8D4908680CF059FB8C4800680CF055FB8B497A
:200A9C0008682FE074480078302148430CF044FB884A106070BB30680CF046FB38680CF092
:200ABC0043FB20680CF040FBD9F800000CF03CFBDAF808000CF038FBDBF804000CF034FB0E
:200ADC00774800680CF030FB764908680CF02CFB754800680CF028FB744908680CF024FBCE
:200AFC00734800680CF020FB00200CF009F84FF4804192E031680120087130680573316831
:200B1C004D73306885733168CD7330680574002031684D743268D072A022316848710321F1
:200B3C003068C28001720720316848720020326890722821306841820121C1760020316860
:200B5C004877326882F85E00012031680877326882F85D00396808713868057339684D730B
:200B7C00386885733968CD7338680574002039684D743A68D072396848713A6890724FF420
:200B9C00207039680022C88008818A7401213A68D17421680D732268557321688D732268A0
:200BBC00D57321680D740021226855742368D9720121226811710021236859712168C88008
:200BDC000881002088722168887405202268D0743948016888472A490A68054610688047B6
:200BFC0027490A6852F8043F0020984718481D4BC16818780A88314902430A802846304928
:200C1C000A6890470C212F4800F05EF80F4800F05FF800F061F84FF4005198F80000BDE8D5
:200C3C00F44F06F063BC00BF6E4F0020044F0020604E0020084F0020B63F00502C4E00200D
:200C5C00E81200503C4E00200C4F0020344E002090E900006D4F00207B4F00206B4F00204E
:200C7C00724F00206C4F0020F04E0020F44E00207C4B002035D10000F84E002045D1000073
:200C9C00FC4E0020581C0020104F0020144F0020184F00201C4F002068240020684E0020A4
:200CBC00004F0020804E0020844E0020884E00208C4E0020904E00208C160020544F002056
:200CDC0090160020F84D0020DFF800F0E5710110DFF800F01D6E0110DFF800F04D710110A6
:200CFC002DE9FC41A0F2013714468846022F40F232819B4E9C493F1F0F2F04D9143F4CD0C7
:200D1C00BF1E1CD011E0DFE817F0CF00C9000D01FA00C100B9002601AF00A7001000100078
:200D3C009D008F007F0074006600282880F21381B8F1020F40F00F818849238807E1B8F135
:200D5C00010F40F00881F078012800F00481324620781179107189B9002800F0FC805078EF
:200D7C00012800F0B580042800F0B280062800F0AF80052800F0AC80BDE8FC812078002843
:200D9C0040F0E9805078032800F0AF80072800F0AC80052840F0DF80A7E0B8F1010F40F015
:200DBC00DA802078012840F0D68006F1EC000CF083F9002840F0CF803446002004F13A01AA
:200DDC0008F05EF8002840F0C68004F1C8000CF058FBBDE8FC81B8F1020F40F0BC8020880F
:200DFC000A28C0F2B880B0F5486F00F3B4808E1C17E0B8F1020F40F0AE802088B0F5FA7FB9
:200E1C0080F2A9800E460CE0B8F1020F40F0A38020880628C0F29F80B0F5486F00F39B80BD
:200E3C003E363080BDE8FC81B8F1020F40F0938020880628C0F28F80B0F5486F00F38B8062
:200E5C003C36EEE7B8F1010F40F085802078062880F28180454E0EE0B8F1010F7BD12078EA
:200E7C00042878DA0A3606E0B8F1010F73D12078082870DA09363070BDE8FC81B8F1010FE9
:200E9C0069D12078042866DA0836F4E7B8F1010F61D1207804285EDCF61DECE7B8F1020F56
:200EBC0059D120880E36BCE7B8F1010F53D13079012850D032462078D178D07069B90028AB
:200EDC0049D05078012803D0042818BF052842D101200CF019F9BDE8FC81207800283AD1BA
:200EFC005078022818BF052835D110780BF08EF81C490246102004F087FABDE8FC8106F166
:200F1C00830500211F22284608F000FA21464246284607F039F944463078B4710BF076F825
:200F3C00002311E006F1640500211F22284608F0EDF921464246284607F026F944463078CE
:200F5C0074710BF063F801230094094901950246102004F059FABDE8FC81C046BD84011061
:200F7C009008002099450110D0080020CA08002009450110F8B51A4C0546A06A2860E0692C
:200F9C0068600BF011FEA669844600200746C4F810C003463C4612E0110809D21FB91346AF
:200FBC00304601270AE001689B188918016005E082F000420027A34288BF1C1CB6183268E3
:200FDC00002AE9D19C4238BF1C1C60460BF027FF2046082894BF00200838A860F8BDC04631
:040FFC008816002033
:20100000B41200001810000015AB0110FDB301106DC00110FDAE011099B5011000000000F7
:08102000000000002D0000009B
:20102800B01200003C100000B1C00110A9BF011067C0011069B80110000000000000000035
:041048003000000074
:20104C00B012000060100000BDC00110CDB30110D9BD01106DB3011000000000000000005B
:04106C00310000004F
:2010700000000000601C002004000000000000000000000020000000E8C9011030000000AE
:2010900028100000681C00200400000000000000000000000C000000D8CA01101800000089
:2010B0004C100000701C002004000000000000000000000024000000F0CA0110180000000D
:2010D00000000000781C00200400000000000000000000001000000018CA01102C00000019
:2010F00000100000881C0020040000000000000000000000200000006CCA0110240000007D
:20111000FFFFFFFF901C00200400000000000000000000002800000090CA0110240000003C
:20113000FFFFFFFF981C00200400000000000000000000001400000008CB011018000000BB
:20115000FFFFFFFFA01C002004000000000000000000000058000000B4C901103400000089
:20117000FFFFFFFFA81C00200400000000000000000000001000000020CB01101800000057
:20119000FFFFFFFFB01C00200400000000000000000000001C000000B4CA01102400000084
:2011B000FFFFFFFFB81C00200400000000000000000000003800000044CA011028000000AC
:2011D000FFFFFFFFC01C00200400000000000000000000005400000078C901103C00000021
:0811F0000100000060E90000AD
:0411F80001000000F2
:0411FC0000000E00E1
:0412000000000F00DB
:0412040032000000B4
:0412080001000000E1
:04120C009C1B002007
:0412100000020000D8
:0412140000000000D6
:0412180001C90110F7
:04121C0000000000CE
:0412200000000000CA
:0412240008000000BE
:0412280000002200A0
:04122C00E0190020A5
:0412300000000000BA
:0412340000000000B6
:0412380008000000AA
:04123C005C1B002017
:0412400000000000AA
:0412440000000000A6
:04124800080000009A
:04124C00000000009E
:04125000000000009A
:041254000000000096
:041258000000000092
:04125C00010000008D
:04126000AC1A0020A4
:041264000600000080
:041268000100000081
:04126C000019002045
:04127000000000007A
:041274000000000076
:041278000002000070
:04127C00000000006E
:02128000290043
:02128200010069
:02128400250043
:02128600300036
:02128800310033
:02128A002D0035
:02128C0001005F
:01128E00015E
:0812900003000000DCE800008F
:0812980000000000000000004E
:0412A0000000010049
:0412A4000000030043
:0412A80013C401105A
:0412AC00EBCE000085
:0412B000B812000070
:0412B400B81200006C
:0412B8000000000032
:0412BC00101C0020E2
:0412C00041D0000019
:0412C4002000000006
:0412C80054E80000E6
:0412CC00E8E6000050
:0412D00029C101101F
:0412D400C7D400007B
:0412D800C9D4000075
:0412DC00A1C7011095
:0412E000A3C701108F
:0412E4000000000006
:0412E80017E6000005
:0412EC0024E50000F5
:0412F0003CE50000D9
:0412F4000CE5000005
:0212F8000200F2
:0212FA000900E9
:0212FC000100EF
:0212FE000000EE
:0113000001EB
:04130400E1CF000035
:0413080011B8000018
:04130C0069C60000AE
:04131000F1BA00002E
:0413140049B80000D4
:041318006DAC0000B8
:04131C00ED9500004B
:041320002BD20000CC
:04132400FDA1000027
:0413280015C70110D4
:04132C0025C70110C0
:201330002DE9F04FD24C04F118012046ADF1340D09F038FACF4D00264FF6FF7001236670BC
:2013500032462082294604F1A40009F03FFC0223324604F1C800294609F038FC0423324692
:2013700004F1EC00294609F031FC4FF0040A04F1440810224046314684F802A007F0CCFF4A
:2013900004F1540910224846314607F0C5FF04F11C073E6004F10A052E70E671267207208B
:2013B0006072CDF80080DFF80083022210200346414604F02FF8102003224146CDF800903C
:2013D000034604F027F81020524641460097134604F020F84FF0080B4FF0030905F12A0099
:2013F000079005F17900089005F11E00099005F15A000A9024350B9517E06078A28FE18F3F
:20141000B4F84050B4F8423006280ED1ADF80A20ADF80C10ADF80E50BA48ADF810300CF0DF
:2014300036F8012002A907F031FDA069B44A31464FF0FF33FFF762F9071CF6D0059606A80B
:201450000DF11A0105AA0AF07EFB002840F0C081BDF818102078102940F0B6819DF81A10D4
:20147000884240F0B181059D29884FF6FF728A4200F09F812B78A23B00F082812E3B40F03F
:20149000A381A978B046002900F03E81891E00F00D81491E012940F2D980891E00F09C8035
:2014B000491E6FD0491E5CD0083900F05981891E40F05C8194F83A30A888052BADF8080021
:2014D00047D001208DF812008E480BF0E0FF94F83A0001281ED004281CD003280DD0022856
:2014F0000BD00598C188ADF80A100189ADF80C104189ADF80E10818927E0A08FE58FADF82B
:201510000A00B4F84030ADF80C50B4F84210ADF80E301AE0A08FE9888842D8BF081CADF8EF
:201530000A002989E08F8842D8BF081CADF80C006989B4F840008842D8BF081CADF80E0024
:20155000A989B4F84200884200DC0846ADF8100001E08DF81260AA49102002AA03F05AFFBF
:2015700004E1A8480BF093FF6B78002B40F0FE80E88860822889A0826889E08261480BF021
:20159000A1FDF3E0AA88B649102003F043FF07984146062207F0C0FE6682A682E682A87998
:2015B000207358480BF073FF96480BF070FF4FF001084FF6FF702379208253B9A87908289C
:2015D00012BF84F801A00520607040460BF0A2FDCCE084F80190C9E06B787BBB291D079898
:2015F0000A680260898881800623637068892082E8896082288AA082688AE082E878E07239
:2016100094F83A00012818BF02280BD19A4910201F2203F0FFFE4FF47A7180B24143394845
:201630000AF046F8688900909249CDF804A0EA7810202D1D2B4603F0EDFE9AE068783128BF
:2016500040F08B80E67084F801A092E06B78002B40F08380A878E3896178032818D0E07849
:2016700025794BB9012814BF2671E6700BE0C0469008002025D10000054304D07F481946EE
:201690000AF016F861780729DDD10620607070E0062907D0E578002D08BF84F8019068D099
:2016B0000220F3E70720F1E7ADC900006B78002B53D1EB78617893B902291DD007291BD0BC
:2016D000062902D12079012816D1032914D06B480BF0F8FC80B901200BF01CFD0CE00AF049
:2016F0009BFC0246A07962490090089843460190102003F08FFE68706D78002D2DD135E040
:2017100007000080580900206B7833BB5C485749009002221020034603F07CFE59484A46D1
:20173000524900901020034603F074FEED1C099829680160A98801238180207863700AF039
:201750006BFC024601230A9D6079494900901020019503F05FFEC0B258B184F801B008E05E
:20177000AA8841491020052303F054FEB8F1010F2AD1256A45B32D6835B36078A84723E07E
:201790006879132820D12889012808D1607B022805D11C480BF07BFE0AF006FA14E0364959
:2017B0001020052203F036FE81B2164809F080FF0AE06888C00B07D3334852462B490090FC
:2017D0001346102003F026FE059808B10BF008FE2579E078790830D355EA00032DD02046E3
:2017F00000788DB9E179257A8DF808100B9A8DF8095013680DF10A052B609288AA8005E0C6
:20181000051601107C0900208DF80890617A8DF81010A17A8DF811100AF0FEFB11490246F4
:2018300002AB102003F0F6FD38B1256A84F801B01DB12D680DB15846A847B80803D3134990
:20185000304607F023FBF808FFF4EFAD607B401E3FF4D3AD401E7FF4E8AD0AF0A5F9E4E5AB
:20187000C5A6000059440110C1170110F566000009450110D9680000F58401103409002074
:20189000D4080020E4080020AC080020CA0800202DE9F04F0F46C34C0168E1624168806874
:2018B000ADF11C0DA060CB4861608047CA48E16A01606168DFF838A34160A168DFF82C933D
:2018D0008160C649002FA346C16064D03D68E8788DF80C0028798DF80D0003A80CF08EF8A5
:2018F000A86808B1BE490160E86808B1BD490160BD4C2878207068786070A878BE68A070F8
:2019100031787368E170B26863602E69A2607968E6610868E06068692062A8696062287FC7
:2019300084F828002A6AE262786886681EB900200BF0ECF800E066617868C06818B90020D7
:201950000BF0E4F800E0A0617868406818B900200BF0DCF800E020612869E061F8688168FB
:201970000E6806B9D14ED0494FF001084E60C66881F8018036B900200BF0C8F84D462E68D9
:20199000F86801E04D462E6000685446FB68A0615868E06107E000200BF0B8F84D462E6893
:2019B0004FF001085446361DC6493668621C04F114035020B04710B1286880688047DBF871
:2019D00004008047C14E002781463B46BE487770694620610422337038460AF0FDF80098C3
:2019F000B0F5801F0CD020B90AF0F2FB04F062FB08E009F0E9FB0BF0D7FA0420708001E020
:201A10000AF0E6FB3846BA4EA0602B68B760986980477060AE4880F80080394641801420B1
:201A30000BF080FBFF211422A0620BF038FDE01CFF2103220BF033FD14200BF073FBA54F9B
:201A500038603868002114220BF029FD0020FEF761FE404609F0AEFC9F480188FF2906D1BA
:201A7000022101807822001D00210BF018FD03200BF0C0FF04200BF0B9FF05200BF0B2FF45
:201A900006200BF0ABFF072008F082FB934E0820307006F124000BF09DFF08F037FD06F151
:201AB000360A05200A2152460AF078FF38B10020C0F10901401C0AF8011B0A28F8DB307892
:201AD000102105F019FD2B68854909200DF10E025E68087001AB10200021B047A06AE1699C
:201AF0000A260A309DF80E20761E00F8012BF9D1891EE161DBF808104846884704F12000E1
:201B10002B68626A059040461E69DFF8D88104F120034146B04710B1286880688047B846F0
:201B30000AF04EFC5FEA000903D006F0F7F94FF0FF3900263AE00298216910F8062CA0F1A0
:201B50000C07032A03D1002930D088472EE0A16A9DF810C00A223046491E11F8013F9C45B8
:201B700006D0521E00F10100F7D14FF0FF0A01E05FFA80FA2868BAF1FF0F00F1080013D034
:201B9000387909F021FEB979012904D0022904BF0299887001E002990870029950460AF09C
:201BB00081FE03E088160020006880472868C36904A902AA0DF10F0098470028BBD0D8F842
:201BD00000007700C35BABB9761CF6B20A2EF8DB33E0C04641490010F844002014DA0000BA
:201BF00005C10000EDCC00004C1A0020CC1C00200C1B00200A2E20DADBF804008047D8F8E1
:201C10000010002231F807A0CA53DBF808108847354850F82620267051463046904706460A
:201C3000FF202070DBF804008047D8F800107A5A16437E52DBF8081088470AF0C1FB0746AD
:201C5000B9451AD007B9294FE069B84238BF071CDBF80400804781462868016A206A88473E
:201C7000626A28681F49059B521C6262C6683846B047DBF8081048468847A768296860696A
:201C90001431AFB9D8F800000A270026835B33B10969606988472968D8F8000014317F1E51
:201CB00006F10206F2D107E0281C0020CBC90000096988472968143109684FF0FF308847AE
:201CD0002EE7C046FDC500004DCD0000941900208C0800209424002030170020EC1200201F
:201CF000A824002055BA000098E600008EC2F5285C2400202DE9F04FB74C04F10C0120468E
:201D1000ADF1240D08F04EFD04F124000BF077FA43F698220123B149206104F13C0008F061
:201D300055FF00250DF1170040F20D4201238DF81750AB490090102003F06CFBA949102044
:201D50004FF0FF3203F066FBA74910204FF0FF3203F060FB1020A54F0090A64AA44813230B
:201D700039460190102003F055FBBD4E307880000BF071FB0146BB48416169B14FF6FF707C
:201D900009F076FDB74AB84910200623009018320191394603F03EFB307880000BF05BFBDC
:201DB0000146B2488346816069B14FF6FF7009F05FFDAF4910200BF10C0200900623019188
:201DD000394603F027FBAB48A649AB4F4FF47A722B468860A949CBF8007004F1840008F065
:201DF000F5FE4FF001080BF166000790E068A44A29464FF0FF33FEF781FC5FEA000AF5D0FF
:201E1000284604900DF1160104AA05A809F09BFEA8B9BDF8140010280DD120789DF816101B
:201E3000884208D104990878B02804D101F108000979FEF767FC049808B10BF0D1FA5FEAED
:201E5000DA70C0F0FF80F7E020690AF0C0FE071C00F0F2803888401E00F08180401E6ED0B1
:201E7000801E56D0001F40F0E4807868BE780078002E3CD0012E2FD0022E3AD1002838D179
:201E9000AD4884F802804FF47A7109F011FC6089DBF8081081460BF0DCF8400829D34846CF
:201EB0001B2142462B460BF091FD039008B307990988ADF80A804A46ADF8081002AB057037
:201ED000284698490090102003F0A4FA88B102A81B21FEF717FC0CE0E570207148B996487A
:201EF00084F802804FF47A7109F0E2FB01E084F80380A0694168667105208847607A217AFE
:201F1000884218D0A678B6B1E06804210BF05AFD11E07868A669C28836B1B66826B111465E
:201F3000437A027AB04706E07F487D492B460090102003F06FFA786809F0CEFC79E0B97834
:201F50006078012905D0022973D17A480BF09FFA6FE006286DD177480BF097FA69E07348CB
:201F7000BE780088062E47D0607806285CD1E36923B11B6813B171480BF089FA6C4880F84B
:201F900000806F48A570FF23E57029460C22637107F0C2F90AF0C6FB28B1E069007980086D
:201FB00001D308F0AFFBA069416805208847207984F80780042809D08DF8198040F20530CF
:201FD00041460DF11902FEF791FE02E008F0C2FB25714EA026E0C046D00B002075D0000066
:201FF0006934000049C5000015C8000043BF0000ACE80000BC110020608129468DF81810C9
:20201000A57006AA40F205304146FEF76FFE0AF0F9FD607A217A884203D0E06804210BF031
:20203000D1FC3CA007F076FEA0694168667004208847384609F050FC2069FEF767FB002836
:202050003FF402AF60785FEA9A011ED306281CD1E078B8B93148057009F0A6FD14E0C04677
:20207000694F0020AC17002094E8000094180020C4E800007BD30000CF85000095C40000A6
:20209000070000C00AF0BEFD60785FEA5A010ED306280CD10AF096FB2B494978814203DDE9
:2020B0002949487006F026FE22480BF0EEF95FEADA00FFF49BAEA07800283FF497AE17480A
:2020D000007800283FF492AE607A217A884215D01C4F0B20491C024691FBF0F03E465043F3
:2020F000091A2172880000EBC100C3199A785978305CDB1C07F0C4FB607A217A88423FF47C
:2021100075AEE06804210BF05DFC6FE60D0A48440D0A00C00D0A48430D0A00C0ED1C00205A
:2021300089BB00004500011040E20100A0080020DD0E00200C0C0020540C0020300C0020EB
:20215000000C0020C80C0020AC1700202DE9FF47C44C0F460646F80B80F05981B80880F0E2
:202170004A81607ADFF808A3B90F80F0CC80E079390914D2B80BC0F06B8104F13C000BF098
:2021900074F9061C08D0706830B17568F068B6F9241000222023A84727F4005758E10128CF
:2021B00000F0AC80E06870300BF047F9684609F0F1F920B1009904F198000AF0CBFF00255F
:2021D0004FF00108E570A84884F805800BF032F8A6492A4604F160000BF03BF9504600685B
:2021F000006B80476061A2782169A369012AA0EB010018444FEA1030A06105D163781BB91A
:20221000E169B0EBC12F3AD9DFF8689284F80280A9F1150000686570000A30D340F60900BF
:20223000A08494F8310000F0F00040F0010084F8310094F8300000F0F00084F83000A562A0
:202250000BF001F94B4603F6FF7211686FF0020C21F00201116004F12401C3F8FBCF864AA4
:20227000C3F8EB1F11688908FCD3C3F8FBCFD3F8FF1F41F00201C3F8FF1F0BF09FFB7F4AD7
:2022900010687F4920F0020040F400701060032341F8043C41F230038B6040460860502377
:2022B0008B6008604FF4CA638B60086041F80C0C217825612B46136019B9E06838300BF027
:2022D000D8F8022009F056FB112005F075F9307C10B90E2005F070F9207A18B125720520FE
:2022F00009F048FB674965710878A57140B10D7004F1BC0004210BF0C4F801E00020E07129
:2023100027F00807A4E020B1042009F033FB00206072B168088840F602084FF000098045FF
:202330000AD0B0F5C15F07D00A8B4FF61F60104040F43470088306E00A8A4FF61F6010407D
:2023500040F4347008822069F0B1DAF85400016804208847C0B1DAF800002569006B80475C
:20237000F168401B738AF060020BF26098188842F06002D240184008F06040F6C411814291
:202390002CBFB0F5FA7FF16094F8310010F00F0F0CD1718C08F10700884207D1B5693046E8
:2023B0006FF480714A464FF00073A847364904F160004A460BF04DF8607860B10220ADF834
:2023D000040001A809F070FFBDF80C0084F801904011A4F860010120E07084F8049008F043
:2023F0003DF87569494630464FF080630A46A84727F000572CE003F0F9FF04F144000BF0BB
:2024100034F827F0020708B147F0020720E00BF01AF8014604F140000BF027F8061C12D0C0
:20243000356AA8080FD225EA0500306208460BF0C5FA706850B12A46F068B6F9241075684D
:202450000023A84702E008460BF0B8FA27F4804727B104F1BC0039460BF013F80090BDE858
:20247000FF87C046F01C00209D6B00006DC500008C0100101500044010100440000004609C
:202490000C4104409D2400201D4C0000BB482DE9F84F0025BA4CB849056094F8E2000028CA
:2024B00000F06581012800F02F81B64E02283CD0032840F05C8151F8250CD4F8B8100029C4
:2024D000A0F5C060C4F8D400B8BF49420028B8BF4042814226DA4FF08057D7F8A40145688A
:2024F000B4F8BC0030214FF47F42082300903046A847D7F8A4014568B4F8C00004214FF4FA
:20251000F802122300903046A847D7F8A401B4F8D070456820214FF440620A23304600971A
:20253000A847012584F8D8501CE151F8258C0AF093FE2F4600B901273946934F38680028D1
:20255000FCD0B146012609F10409D9F82CA03E6009B10AF087FECAF30720C4F8BC000AF0B0
:202570007BFEAA4600B9B2463B68002BFCD0D9F800B0BAF1000F3E6001D00AF073FECBF3C4
:202590008440C4F8C0000AF067FEAA4600B9B2463B68002BFCD0D9F81C90BAF1000F3E607C
:2025B00001D00AF05FFEC9F38120C4F8D000B8F5C061C4F8B81000F09C8094F8D80068B917
:2025D000C4F8D410D4F8C000C4F8C800D4F8BC70C4F8C470D4F8D030C4F8CC30D4F8D4101F
:2025F000D4F8BC30002954BF02206FF0010004F1C802176801EB41014018411000EB917153
:2026100007EBA1001060D4F8C810C4F8C43000291CDD1E293CDDD4F8CC0030B93429B4BF80
:2026300015391E21C4F8C81025E02A29BABFD4F8C8000B381E20C4F8C800D4F8C4003F2808
:20265000B4BF401C3F20C4F8C4001FE0D4F8CC00032812D011F10B0FC6BFD4F8C8000B30A8
:20267000301CC4F8C800D4F8C4000028C4BF401E051CC4F8C450032508E011F1150FC6BF35
:20269000D4F8C8001530301CC4F8C800C4F8CC504FF08057D7F8A401B4F8C43030214FF4EB
:2026B0007F424568374800930823A847D7F8A40104214FF400321123456832480096A84782
:2026D000B4F8C860D7F8A40104214FF4F802122345682C480096A847D7F8A40120214FF46D
:2026F00040620A23B4F8CC60456826480096A84701E084F8D85040F2FF50404502D8801C82
:2027100040452FD2082030E051F8251C1F4F4BF2F5204843060A3868C0F3814001280CD1EC
:202730001B4800680068804708F008FE0AF0A0FD3111C010484306EBE03694F8E50030B9FC
:202750001448006820F07F408019460801E084F8E5501148310C0660012741600F4D876055
:20277000287808B90B2000E0052084F8E40002F0C1FCBDE8F88FC0462D400C402C500C40F6
:202790007415002000A00C4000800C40B43F0050EC010010102009403C600C4025E800001A
:2027B0002DE9F04FB64D686885B0019020B905B0BDE8F04F0BF0FEB80178DFF8C882B24E5E
:2027D000DFF8C892DFF8C8A201291CBF0229042946F2A81741F64C5B05D0402918BF802987
:2027F00000F09A8043E10AF079FD0028FAD00198007803F0ABFA0090446814B900200AF06D
:2028100085F99AF80100002860D001F069FA0AF0ADFB02900168009801914F6807F008F975
:20283000022827D000990A78012ADBD1994B19680A7A19F80230337018B90BF0B7F858448F
:20285000A0602069C17E01F0EF01C1762069C17E41F08001C1762069C17E01F0F00141F0FC
:202870000201C1768C48B96841182069C16101210098A0E001980178802913D10822874843
:2028900032700178012903D09AF80100012803DD38690121C17213E0D8F828103A69087860
:2028B000D0720DE07D49072030700A783869012A02D10123C37203E0D8F828104A78C272F1
:2028D0000298817901988AF80210CBE00098002888D00199009A0078914205D101281CBF0B
:2028F00000200AF013F915E0012840F0C080694801680A7A19F8020030700BF057F8391828
:20291000A0680BF04FF818B90BF050F85844A0600120A8700098A5E09AF8010000287DD04F
:2029300001F0DEF90AF022FB04462068029047689AF802000AF01AFB03900AF0D5FC10F094
:20295000070F3DD0A87803F001FA0190416801980091029907F06CF8022831D001990A7895
:20297000012A2AD14B4B19680A7A19F80230337028B90BF01BF883440098C0F808B0009949
:202990000869C17E01F0EF01C17600980069C17E41F08001C17600980069C17E01F0F00114
:2029B00041F00201C176009AB9683B4841181069C16101210198A97054E000200AF0A6F8AA
:2029D0000398A04228D002980178802913D10822324832700178012903D09AF8010001285A
:2029F00003DD38690121C17213E0D8F828103A690878D0720DE02949072030700A78386948
:202A1000012A02D10123C37203E0D8F828104A78C272A0798AF80200029823E00AF064FCDA
:202A300010F0070F29D0A87803F090F904462078D4F80480012820D116490A68107A19F823
:202A5000001031700AF0B2FF3918D8F808000AF0A9FF20B90AF0AAFF5844C8F8080001203E
:202A7000A870204605B0BDE8F04F04F017BC05B0BDE8F04F00200AF049B805B0BDE8F08FDB
:202A90006824002090E900006F4F0020289A0110684E0020104F0020F0D8FFFF734F002053
:202AB0002DE9F04F0C46E00789B00BD50AF01AFB28B100218160A448006800B1804784F035
:202AD00001003EE1A00710D5002006900021049000230290009005910393019101223C204D
:202AF0000AF05CFF84F002002BE11D256007974E974F40F18A8000200790834695498878E2
:202B1000FF2804BF00200AF001F8386890F8A0000AF02CFA80463868C07A98F826910228AF
:202B300018BF032808F5907A06D106F10D000AF031FF08B906F1070B514648460AF026FF69
:202B500088B33868807A002818BF012804D1314650460AF017FF04E05246494630460AF0FB
:202B70000DFFFF2834D005FB00F906EB090506225146E81D0AF0FAF816F8090040F0020914
:202B9000E81D079006223868817E01F0010188F8261105F1010A386800F1140108F5907074
:202BB0000AF0E4F814E0514648460AF0E3FE78B15246494630460AF0E1FEFF2808D006F1A6
:202BD0000D01454348190AF0E5FE08B149F0020908F12C004B4601780691418909090591DC
:202BF000B8F82220079904920122C088029140080390CDF804B0CDF800A0002098F8061020
:202C10000AF0CCFE84F004009BE0200610D500200690002104900023029000900591039306
:202C3000019101223B200AF0B9FE84F0800088E0E0043BD5F11D06F10D000AF097FE386832
:202C50004179012923D1017A012918BF04291ED1C17A022918BF032919D1817E00F114029B
:202C700030460AF08BFEFF2811D04543354405F10D000AF08FFE50B9E91D05F10D000AF0AC
:202C900075FE38680622E91D14300AF06FF8324932484A6800784FF4805108F0F1F810B169
:202CB0008E2006F0FFF984F480504AE0A00505D50AF0D2FA2A4901200860FEE7610504D591
:202CD00006F063FB84F480603BE0600405D5812006F0E8F984F4804033E0A00430D5214D05
:202CF000286810B1002009F011FF4FF0FF3028600AF038FE1C4D296851F8202F684690470D
:202D10001A48016A426A2D68009101921849029100F128014A6809781368C06903938DF871
:202D30001010ADF812006B462E68124A12491348B0471349086002F035FC84F4005000E0CD
:202D5000002009B0BDE8F08F204F0020AC450020104F0020684E0020784E00206E4F0020AE
:202D7000FC002043044F0020F04E00204C1A0020E5D000002C4D0020684500208849002081
:202D9000EC4E00202DE9F04F8246DAF800600C465FEA0208ADF11C0D14BF00214FF0FF31AB
:202DB00006F1480083460AF03AF9002818BF0B2040F00D8100258848F460B8F1010F05706F
:202DD00007D06570022008F07FFF062008F07CFF01E0012060702078012840F2AB80801E78
:202DF000012868D9801E012833D9801E012800F2DF800AF028FB06904FF0805000F5EE7752
:202E1000D0F8DC01A378466A009321782846062908BF0120019001200290A068228AE16840
:202E30006368B047814606980AF0C8FDB9F1000F40F0C080B8F1000F02D009F067FF02E0A8
:202E5000504609F08DF8002800F0A4803868806A2AE00AF0F8FA06904FF0805000F5EE7793
:202E7000D0F8DC01012306680093A168A27860682478AC46042C08BF9C466346B0478146BF
:202E900006980AF09BFDB9F1000F40F09380B8F1000F02D009F03AFF02E0504609F060F871
:202EB000002877D03868406880474A49C1F8B0510D6081467EE00AF0C6FA06904FF0805046
:202ED00000F5EE76D0F8DC01E38A87690093E0680190208B0290A0780390207D04900121E0
:202EF000059122782846022A08BF081CE1786268A368B847814606980AF060FDB9F1000F6B
:202F100058D1B8F1000F02D009F000FF02E0504609F026F800283DD03068006A80475FEA20
:202F3000000947D13068C569A168E28A2369E078A847BEE70AF087FA06904FF0805000F598
:202F5000EE76D0F8DC01E38AC7680093E0680190208B0290A0780390207D294604900120A7
:202F70000590257805B9014608466268A368E178B847814606980AF021FDB9F1000F19D16F
:202F9000B8F1000F02D009F0C1FE02E0504608F0E7FF08B914201AE03068406980475FEA49
:202FB000000907D1306802692169E078904780E74FF0FF39B8F1010F05D0022008F0DAFC08
:202FD000062008F0D7FC58460AF053FA484607B0BDE8F08F50450240A72400202DE9FE4F7D
:202FF00005467F48002400680094C0090ED37D48007858B97D497C4851F8112C104040F007
:20301000817041F8110C202007F018FF012D40F0E280DFF80892D9F8DC00012840F0D8807C
:203030000220C9F8DC0009F09DFB012007F006FF5FEA000805D00120C9F8DC0009F0A2FB99
:20305000CBE00AF01AFAA34602906948694DC0F800B0A86A016801208847012804D1584656
:2030700006F01CFD012000906348644FC0F800B0386811200AF00EF900B1012410200AF0E8
:2030900009F908B144F002040F200AF003F908B144F004040B200AF0FDF820B12868584EF0
:2030B000016B308888470A200AF0F4F820B12868544E016B3088884753480126066028684F
:2030D000816944F020008847504806600AF0DCF800F001010191400814D2286A81684C4846
:2030F00088478246BAF1040FF7D0BAF1010F04D1286A42684648032190474649086820F040
:2031100003000860584600F0BDFA2B683868986B8047019801280CD0BAF1010F04D1286A32
:2031300042683B48314690473A49086840F0030008603148066028684169204688470B20FD
:203150000AF0A8F820B128682D4BC16A188888470A200AF09FF820B128682A4BC16A1888F6
:203170008847294806600322C9F8DC20274BC3F800B02868416B204688470128F9D13868D6
:20319000042007F05BFE0446194806603868144800688009FBD30098012802D1304606F0DF
:2031B0007DFC0AF05FF8082007F048FE07460298C9F8DC600AF0D2FB1748008806F080FACE
:2031D00009F0E0FA57EA040018BF4FF0FF3804E06FF0040801E06FF001084046BDE8FE8F2A
:2031F000141009405C160020FFFFFCFC150009400C400940B8010010000222432C20094012
:20321000A2E400009EE400002820086080010443004003402422084020E80000741500205C
:2032300010B50B7884074CBF43F0020303F0FD0304064CBF43F0800303F07F0304074CBF1F
:2032500043F0080303F0F70384064CBF43F0200303F0DF0310F0AA0F0B7004D0107840F0B3
:203270000C00107010BD18B9117801F0F301117010BD2DE9F8430D461646287802281F4629
:203290004FF0000862D1686801784078089C01EB002189B220001CBFB1F5285F0B205AD139
:2032B0004FF42850091A08D0491E1ED0491E2CD0491E22D0491E2ED048E0DDF82490E868D1
:2032D0000AF0EFF8214680B2421A4A45ACBF4C46041BA4B26018162804DA3C802246E868FF
:2032F00001440EE04FF00D0834E0E8680088022139803070000A70702CE0062038800622D3
:20331000E968304609F032FD24E001203880E868017831701EE0E868B0B10821398001884D
:2033300031700188090A71704188B1704188090AF170818831718188090A7171C188B17124
:20335000C088000AF07105E0398003E0A7F800804FF001084046BDE8F2832DE9F0470F4680
:2033700082B039780024022970D1804678680A9E0178DFF8E0A09146427801EB022189B2D1
:203390004FF42850091A1D4606D0491E29D0491E4ED0491E39D059E0F8680AF082F880B272
:2033B000B04204D3A819162803DB0D244FE007244DE0FB682A464946981909F0D7FCAD19FA
:2033D000F868ADB2C5F11602002140190AF067F8DAF8000000281CBF0268002A37D00021EC
:2033F00023E08EBB022DE0D199F8000099F80110FA6800EB01201080DAF8000000281CBF8B
:203410000268002A23D001210FE0EEB9062DCCD1F8680622494609F0A9FCDAF800000028DE
:203430001CBF0268002A12D00321404690470EE056B9012DB9D199F80000002813BF012841
:20345000F9680870802402E00B2400E001242046BDE8F687842400207CB5894D14460246D0
:203470000026A2F58062182A1AD8DFE812F0FE00F800F100E900E200DC00D500D000190054
:20349000C500BE00B700AE00A3001900190080006F00680054004C00420039002C0024009D
:2034B000282880F28580022940F0828021880AF051FA0646E1E0012940F0DE80002C00F009
:2034D000DB801135A6E0102940F0D680002C00F0D380284650301022214609F047FCCCE018
:2034F000012940F0C980002C00F0C68029468D1D90E0262940F0C080002C00F0BD8005F120
:2035100060002622E8E7012940F0B680002C00F0B3806D1D7EE0602900D13CB9012940F0B4
:20353000AB80002C00F0A8800D3573E005F186002146602209F01AFC012068739DE0012960
:2035500040F09A8020780AF001FA96E0012940F093802078022800F38F800C35287020786C
:20357000022814BF301C01200AF0ECF985E0072940F08280611C6846062209F0F1FA20785C
:203590006946324604F034FB04460A2C10DA0AF0D5F938B9204602F06DFC08F025FF06F0DB
:2035B000B5FF6AE02A46012002F12C05285564E0022662E001295FD1A87B21780028A973C3
:2035D0005BD12078012858D1E9E7012954D12478072C51DB102C4FDC0B3537E001294BD1A7
:2035F00024780A2C48DA093530E0012944D12478022C41DA083529E000293DD10AF09EF947
:2036100010B909F05FFCC8E701240F351EE0012932D10A35247819E001292DD12478022C74
:203630002ADAED1D12E0102926D12B4603F1400051E7012920D12478022C1DDA2D1D05E062
:20365000012919D12478042C16DCED1C2C7014E0012911D12478022C0EDAAD1CF6E7022960
:203670000AD120881435288007E0012904D12478022CD8BF6D1CE9DD182630467CBDC0463D
:20369000EC1200202DE9F84FDFF804B20746ABF13500DFF8F0810068800880F0E28075482D
:2036B0000068006880477E490831D1F8009000254FEA29715FEA995201F101010AD2C0F15D
:2036D0003E0210F10A0F4FEAE202D8BF08229142B8BF111C684BD3F87C21C2F30462162AB5
:2036F000A8BF203A1B68C3F30443162BA8BF203B9A465218162A05DA12F10A0FB8BF6FF01B
:20371000090200E015225D4B5D4E02F01F0141F4F8511980316811F0030F18BF0125C90881
:2037300028BF45F002050FB145F00405434693F90710411A052904DA9979A94208BF9988E0
:203750006FD0DFF844E10F28A0F10F0829DB08EB0011A1F1F0084FEA28210091072984BF27
:2037700007210091062988BF06215EF821600424774604EB81043C594FEA950CA41BEE088F
:2037900004F0FF0124BFC4F3072631446F08AE0824BFC4F3074631446E0828BF01EB1461A2
:2037B00004E000214FEA950C6F080091009C5EF824E05FEA5C060EF0FF0424BFCEF307269F
:2037D00034447E0824BFCEF3074634446E0828BF04EB1E64009E89B2A8EB062671438031A7
:2037F00004EB1124AAEB02010029D8BF0121342209F0FF074A4391B24FF6FF727943B1FBD8
:20381000F4F18A4238BF111C802889B2998005DA10F1800FB8BF6FF07F0000E07F20D8713B
:203830009D711A4800681F2918604FF0000008D340F2FF128A4206D24908401C8A42FBD398
:2038500001E01F219980134F0F39090940EAC10047EA0001CBF8FB1F0026CBF8FF6FBDE86C
:20387000F88F0D490D4F434608200F609B1D1870BDE8F88FEC0100103C1100506E620840C1
:20389000242208407C2400209C130050082009403500094000E7A48030100940FDFDA400AA
:2038B000AC3F0050F0B57348734A0078734C744B74490D2883B03CD8DFE800F0DB070707CA
:2038D00007D3D358D39292B0B0B7146041F204456D494C88AC421FBF4E8BAE424E8EAE42EA
:2038F00003D11D806948106072E0022C684D1C804FF4A05635D94FF48067E41B1AD0241FB8
:20391000012C1DD94FF47F77E41B1BD04FF44067E41B0FD0A41E012C0CD9241F0AD0641E16
:20393000012C0DD940F2F937E41B012C19D9241F08D096E0022814BF1E80564D156047E079
:20395000554DFBE7554803681C7A012C05D141F20240488048834886F0E74E804E834E8612
:20397000ECE7002009F0D2F883207EE04C488178FF2952D0182041434A48146040F204456C
:203990000068841C645A1C80641B012C464B70D94FF47F75641B0FD04FF44065641B032C04
:2039B00084BF641F012C0BD9A41E012C61D940F2FD35641B06D103E0801C41F201444452B0
:2039D000136005E0002009F0A1F8852009F0B2FF03B0BDE8F04035480078012103F08CBDA3
:2039F00040F204424888188090421CBF41F2084290423ED041F60402904211D12C4C2D4AED
:203A100025682D4800680023CDE9002355F8086F2A4B0222B0472A490880F7BD48881880C5
:203A3000002009F073F885201FE04888188002280DD940F20442801A1BD040F6FC72801A9B
:203A500005D0083815D04FF47F72801AE8D1887B801CC0B2B528A8BF662088730020488017
:203A7000F7BD002009F052F88420BDE8FE4009F061BFF7BD6F4F0020204F002015D4000075
:203A9000504F0020CC4C0020204A002059550110615A0110B1540110755B0110104F002094
:203AB000684E0020804E0020313901106E4F0020F04E002002000080EC4E002019B10000D6
:203AD000424F00202DE9F04F044677488C4601689B46BCF1000FADF1440D44D0002A42D0B0
:203AF0009CF800300120984001423CD01088B0F5C15F2CD1506997696C4DD669DFF8B09187
:203B10000E904FF0030E0DF134080F9728681096C0F3036A58F8047FB7B100213D1F052094
:203B30000B4655F8046FB14506D0401E01F1040103F10103F5D107E0052B05DA785820F4AB
:203B5000702040EA0A407850BEF1010EE2D1C4F804C0A26009F077FC564D8246287820B14E
:203B7000504609F02BFF00209AE001F0C5FF5249086840F00200086007A809F09BFA4FF00C
:203B9000050805F1BC0007AA4C49CDF8248007F0F3FB07A809F06EFA00264FF0FF0905F14F
:203BB0006000192107AB8DF82460454ACDF8209007F04AFB07A809F07DFA05F1F00007AAAA
:203BD0004049CDF8248007F0D7FB07A809F052FA0127CDF8209005F17C001A2107AB3A4AA6
:203BF0008DF8247007F030FB3849324605F19800134606F05BFF364809F01CFB354A3346C4
:203C1000042105F14C0008F063FB4FF6FF70A5F86001AE702E716E71AE71EE712E726E728B
:203C30002E61C5F81C802B786F70581C2870504609F0C4FEBBF1000F03D1684609F082F9FC
:203C5000EB46DBF800002060DBF80400E0609BF8100067742074BBF8120060821E4DA5618F
:203C70006561DBF80C0000B1A061DBF8080000B160613146782204F1200005F04DFB04F138
:203C90003800314608F020FA0BA809F0A0FB13490D9404F1700032460BAB06F007FF20461A
:203CB00011B0BDE8F08FC046D4210840541300500200F844F01C002000200940C5CD0000B0
:203CD0006DC50000597B0000258F000015D100009D6B000041A900007FB800001BD400001C
:203CF0002DE9FE4FDFF8FC8198F8011011B9002008F00CFF09F05AFE0546002405F6C415DB
:203D10000027794EDFF8E4910EE0384609F02EF9417939B1316882790A552946641C09F04E
:203D300005FEE4B27F1CFFB299F800008742ECDB98F80100844205D0002008F0E7FE8220A2
:203D500009F0F8FD98F80100012840F0A980002701E07F1CFFB299F80000874280F29A8018
:203D7000384609F003F9054668790028F1D03068A979027891421CBF002008F0C7FEA879CB
:203D900086E0306810F8090009F0F0F800684268DAF808109068814204BF3D4609F1010922
:203DB00000F08D808FE03068047801210FE0D8F80420435C02F5AD7209FB03F509FB04FEB7
:203DD000555B32F80E20954238BF1C46491CFFB2B942ECDB4FF6FF7009F0A4FD8346204646
:203DF00009F0C4F840F6C41500684168CDF800A000204FEA5B076F4382460291CDF804B038
:203E100016E0204609F0B2F801680A78802A04BFDBF810305F610978402907D1344A80792F
:203E3000136803EB401107F5A062CA610AF1010A0098824554DA306810F80A008442F5D0C7
:203E5000D8F8043009FB00F2991803F5AD73C9899A5A4B08934203D2009B891A8B42E5DA82
:203E700009F084F80068D0F804B0029A0198DBF80810936800EBD0704010A1F6C41105FBD7
:203E9000003009F08FFD0028BBD0306810F80A00BDE8FE8F002008F039FE822009F04AFD9D
:203EB00098F80110306809F039FD3068007809F05DF800250168D1F804A04FF001096F1C5D
:203ED000A145FFF65EAFEDB2002D1CBFF8B20028A2464FF4C0797FF466AF3068047879E711
:203EF0002046D5E7684E0020004F00207B4F0020844E00202DE9FE4F0E468246307AC1067F
:203F100093461C464FF000090CD5584609F002FD030000F0EA800A223146504698475FEAD9
:203F300000094DD13078DDF838800D9D0C9F02281AD170680178407801EB002189B24FF417
:203F50002052891A012910D9891E3AD0491E14D0FD397BD0491E00F08280491E6ED0491E47
:203F700074D0491E00F09780ADE0002D2AD1F068017839800278416889E0002D22D1012073
:203F90003880F0680178217000217089401C80B209F0BCFC398860B10278921C5118398082
:203FB000418961704189090AA17002784168E01C6EE0091D398004220021601C09F06FFAF7
:203FD00095E0002D68D1F0680588042139802570290A617028460DF1020109F097FC5FEA56
:203FF000000821D0D8F80C50BDF802204FF6FF766B46314609F086FC50B998F80030D8F8BF
:2040100004203C48022109F079FC08B9ADF80060287802280AD169680222201D08F0A6FE1E
:204030003888801C388001E0ADF80050BDF80000A070BDF80000000AE07058E0002D2BD151
:20405000F0680168504609F004F802E025BBF0680088022139802070000A607047E0F0689D
:2040700009F01FFA80B229468842B8BF4FF007093DDB814208BF002206D008EB0102824299
:20409000B2BF4246451BAAB23A80F0680144204608F06CFE2BE015B14FF00B0927E0F068B9
:2040B0000721398001782170417861704188A1704188090AE17001792171C1886171C08805
:2040D000000AA07113E0584609F014FC5FEA00090BD00F980290CDF8048000953B462246EE
:2040F00031465046C847814601E04FF00E094846BDE8FE8F26E60000F8B57E4F0446386866
:20411000C16E0025002940F0F180102009F00AF839680028C86600F0E7808E6E1022214663
:2041300008F024FE39680878002840F08E80CA6ED6F8980012F80CCF00F001030CF0010C4E
:20415000634518BF0023400843EA4000C6F89800C0F34003D2F800C0CCF3400C634506BFAA
:20417000430803F00103002320F0020040EA4300C6F89800C0F38003D2F800C0CCF3800CEA
:20419000634506BF830803F00103002320F0040040EA8300C6F89800C0F3C003D2F800C0E6
:2041B000CCF3C00C634506BFC30803F00103002320F0080040EAC300C6F89800C0F30023E1
:2041D000D2F800C0CCF3002C634506BF030A03F00103002320F4807040EA0320C6F898001F
:2041F000C0F34023D2F800C0CCF3402C634506BF430A03F00103002320F4007040EA4320FF
:20421000C6F89800C0F38023D2F800C0CCF3802C634506BF830A03F00103002320F48060E5
:2042300040EA8320C6F89800C0F3C0231268C2F3C022934206BFC20A02F00102002220F413
:20425000006040EAC220C6F898008A6E92F89500030718D5C86E4368C3F3C00098B1C8789E
:2042700040F00800C870D6F8981023480140C6F898103868C06EC16821F48071C1604908C7
:204290004900C16003E092F8330001282AD0607800281CBF7178002908D13968CA7813071E
:2042B00008D5002804BF7078002803D03A68052111711CE06068C0F3800040B996F89500E6
:2042D00010F0040002D10120087110E00AD00878002819BF307821783178207809F006FB97
:2042F000054604E0182502E0132500E011252846F2BD00BF304F0020FEFEFFFF2DE9F04156
:204310000446764DA178A869ADF1180D891F00F0DE80C91E00F0C980491E5FD0491E48D068
:20433000C91E3CD0481E40F0D580287A697AB8B96878002831D0A08809F0D4FA071C00F08E
:20435000C980A07A40080FD3787968B1E168890A0AD2B91D01AA03F04BFC0A2804D1032118
:20437000A08809F0BBFAB5E0287B022802D1A07A0009F4D3A088797904F1080200F082FFAE
:20439000A869002800F0A6804368002B00F0A28000210A46A08898479CE00521E0E70028CD
:2043B00000F098804368002B00F0948062780221F0E708F09FFE002800F08C80A86950B16C
:2043D000076847B1206900906189227B637BE01C3C46A0477EE060890121C2E767784FF053
:2043F0000008002F52D1A17949084FD3EF69002F4CD101A841460E2209F051F8A08809F05F
:2044100071FA071C66D0606940B97879B91D06228DF80A0001A808F0A9FC19E06669307CCE
:20443000062206F111018DF80A0001A808F09EFC07F10C00B91D062208F098FCB81D0622E6
:2044500006F1110108F092FC307C40F002007871A1799DF81120C1F3800010438DF81100F9
:20447000080905D39DF8110040F008008DF8110001A8214600F022F928B92878022103F01D
:204490003BF8404627E0A8694FF0150810B3436803B3A088627801219847B8F1000F19D017
:2044B000A86943680321424674E7E078211D002203F09EFB0A280DDA410001EB800004F12A
:2044D0000C0225300421C0B202F00CF902E0A08806F0F0F8012006B0BDE8F081EC120020E8
:2044F0002DE9F04F6C4CE2680746880FADF1140DC0F0CE805068406808B18047E2685168D1
:20451000664E886808B9CD6875B13568002DFCD00022326010B18047E0684168C86800B127
:2045300080475F4807F0C0FE4FF00008C6F800805C4846F81C0C5C4808F07CFE40F60A095A
:20455000A4F82490A378A4F82680BD6894F83000C34604F1240A00F0F00084F83000012BD9
:20457000C4F828B094F83100A5F8028000F0F00040F0010084F8310001D17B7CABB1B868B8
:204590000088A9F10801814208D0B0F5C15F05D0298B4FF60F400840288304E0298A4FF694
:2045B0000F400840288287F811804048016883680193C368406B00911022694620F078401A
:2045D00040F0805003903A48029303F0E3FD494600E01D466B6813B118888142F9D1C5F8FB
:2045F00004A0687B00F0F000687304F1380008F03CFF80680088CA1F824220D0891F814291
:204610001DD03B8CEBB197F82C0097F82D30C7F824B000F0F00087F82C0003F0F00040F062
:20463000010087F82D0007F12002A2629AF80D00A7F8228000F0F0008AF80D0001E0C4F8B3
:20465000108030680028FCD0C6F80080B968237A0A8A4FF6FF301040088283B9154800684F
:2046700001680120884701280FD0687B00F0F00040F001006873104808F0DCFD05E006F0F6
:20469000E3FC0028FBD008F0EEFEB86846F81C0C05B0BDE8F08FC046F01C00201C10044053
:2046B0000100070601010E045D2100004C13005018000021E0010010719F00002DE9F04F0C
:2046D000714CDFF8C0A1E56988468146ADF1140D002D4AD1B9F1000F00F09280B8F1000F78
:2046F00000F08E8007F08AFD06460A2E23DAD8F814702674002F39D0700010216A4600EB4B
:2047100086002330C0B208F049F990B950460778FF211022684608F067FA50B93FB999F8BB
:204730000600494600F0010009F0D4F801E00120A074E56919E004F1E60B0A2700265846E6
:20475000FF21062208F050FA68B97F1E0BF10E0B06F10106F3D1607C002804BF0A202074A5
:204770004ED094F83660267400E0267C0A2E47DA002D35D170000E214A4600EB8600203051
:20479000C0B201F0AFFF207C06F044F96846FF21102208F084FE207C10216A467030C0B220
:2047B00001F0A0FF217C0E220801A0EB410000194946E63008F0DAFAD8F814206AB1504678
:2047D000007840B9107C02F11101002300F0010009F07CF801E00120A074C4F81C804CE0AC
:2047F000AA68002A3ED12A69002A2FD16A690ABBEA683AB9A07B08B107F0C6FA08F0BFF88A
:2048100001203BE07000102100EB86002430C0B201F068FFE769217CFA68480000EB810019
:20483000103225300421C0B201F05CFFE1690020C86022E07000102100EB86002330C0B283
:2048500001F050FFE1690020486116E070001C2100EB86002230C0B201F044FFE16900207F
:2048700008610AE070001C2100EB86002130C0B201F038FFE16900208860002005B0BDE800
:20489000F08FC0465A4F0020EC12002066480178002900D170472DE9F043491E032985B0B3
:2048B00004D9891F012940F2BC80B4E05F4CDFF880912168DFF87C8108685F4E00F108052C
:2048D000062205F1080102A808F050FA0622A91C684608F04BFA2878C1091D2700F00F022E
:2048F000032AC0F3801537D16079C0F3800081421ED12169062202A807F0B4FF00280AD065
:204910006946284609F042F8002804D03146684609F038F8FF2879D04743D8F80000807A29
:20493000F519002818BF02280AD0012818BF03286CD1F25D691C484608F0C4FF102865D064
:204950006B46EA1D2946484608F0B8FF06226946E81D08F00BFA59E000F00F00052860D174
:204970006079C0F38000814250D12169062202A807F078FF002849D06946284609F006F818
:20499000002843D03146684608F0FCFFFF283DD04743D8F80000807AF519002818BF0128F6
:2049B0000AD0022818BF032830D1F25D691C484608F088FF102829D040F2024008F07AFFE9
:2049D0006B46EA1D2946484608F078FF06226946E81D08F0CBF9D8F80010F05D88760622B8
:2049F000D8F80000691C143008F0C0F91348144A41F20441418041834186124801801249AA
:204A1000124808600121107802F076FD21680A680020107105E0002008F078F8862008F00E
:204A300089FF05B0BDE8F0836F4F0020F44B0020CC470020104F0020AC450020204A002087
:204A50006E4F0020504F0020204F0020595501102DE9F04FADF1240D079001F04DF86148C2
:204A7000007807F045FD604D0024012808D90A380FD0801E04D0401E0ED0401E09D006E0AE
:204A900008F0D8F8022804BF01210C1C06D0696805E005211F2401E0032107246960534A7C
:204AB0001068C0F38150012806D152F80C0C0127020E07FA02F0044308F0F4FA524AFF2372
:204AD0000818401E471C28607F1E02F8013BFBD1079A1268002702F0FF03FE2B20D0DDF89A
:204AF0001CC096463B4601260EF0FF02FF2A10D0904205D3914203D806FA02F2144201D0CB
:204B100002206CE017430EF0FF02DFF8FCE00EF802305CF804EF5B1C0EF0FF02FE2AE5D138
:204B3000092002F003FE07980121A86005F1280007F0CAFA05F19806A8464FF0010A4FF09C
:204B5000040B0025A9460AFA05F0044216D1074204BF05F0FF0141F4C04104D02A480799DF
:204B7000405D51F82010224802F054FAE8B24FF0FF3107F077FFC6F8009001E0C6F800B052
:204B9000D8F800006D1C361D8542DCD904A808F071FA184C184A2078102104AB059008F102
:204BB0000C0006F051FB684608F084FACDF80C906A4660681149029008F1640006F0DCFB84
:204BD0000F4951F80D0C20F4F85040F4005041F80D0C0C4FC1F8FFAF4846C7F800A009B071
:204BF000BDE8F08FA624002060140020B43F0050007FC767F0E8000091CA000019B0000017
:204C10000D30094008000940A41400202DE9FE4F664CE76B08F01AF8664D002F4AD08108DF
:204C30001BD207F110020CCA002102400B4008BF002A3FD03A693E6A10403043386207F149
:204C5000180696E80C002764194307F11806104386E803004FF4804128E039693E6A07F18D
:204C7000180341F0020108403043386293E800030022002607F1180340EA080046EA09013B
:204C900083E803003E69E2632B46A3F1100000F108031968B14319607B6901689943016021
:204CB000394604F1440005F06DFF022104F1BC0008F0E7FBAB4604F13800002601254FF074
:204CD00002094FF0110A0190A846F0B208F05AF8071C30D0B87C01282DD1ABF11400797CD1
:204CF0000368113105FA01F223EA02010160797C4268113105FA01F111434160787C08FAD7
:204D100000F0C0B207F03AFFF868002107F04AFA812808BF87F8129081280CD0787C94F89F
:204D300062110AFA00F0084384F86201002104F1F00008F0A6FB761C032EC6D3019808F046
:204D500094FB0746E06B70BB47B3684605F036FC30B1009820B1082004F09CFABDE8FE8FF4
:204D7000082007F00BFF12493869A1F10802136818431060786951F8102C104341F8100C0E
:204D900000260E60B86841F81C0C0F68002FFCD0019807F073FFE063BDE8FE8F04F1BC0054
:204DB000494608F06EFBBDE8FE8FC046F01C00201C1004401C10044060480178042900D889
:204DD00070472DE9F84F891F2FD0491E012900F2AA805B4CA078FF2827D008F0C7F88246FF
:204DF0000AF16C06706808F061FD0746387903281BD1B868017811F0030904D17068BDE8FB
:204E1000F24F08F04FBD457800F102080AF20F10B9F1030F00900DD045B1307830B9009822
:204E30003D21417001210098017084E0454801780129FAD09AF894000AF59A7B58B32D1F39
:204E50004346EAB24946504608F028FD50B900993D204870012000990870BDE8F24F3A488A
:204E700008F018BD39480168884700904FF4C0709AF80620616842438818002180F8391110
:204E9000DBF800109BF80600490804F00FFF304900980A6890470020B9F1030FB8602ED0E7
:204EB0002C4840690078810708D5C0074CBF03200020EDB2401918F8000000E081203072A8
:204ED0002549BBF83E000A78904211D3317A802918BF81290FBF7F21204A1078091A49B2D8
:204EF00000914B46A078EAB2414608F0CFFC11E0A0784B46EAB2414608F0C4FC0AE00F48CC
:204F10000178082903D04146504608F0B7FC404605F0A6FD706808F0C5FC39465046BDE8D3
:204F3000F44F08F0A7BC002007F0F0FDBDE8F24F862008F0FFBCBDE8F18F00BF6F4F0020BE
:204F5000684E0020794F0020AC4500208C1600209016002090E900006B4F0020704F0020B8
:204F70002DE9F04F8346ADF1140D0393BBF1000F02920E9801910F9C049000F0AC80081CA8
:204F900000F0A980101C00F0A680181C00F0A3800498002800F09F80002C00F0A180206AC5
:204FB000002800F09880524D676A281D0068002F00F09180A16A08F059FC40B2002808BF2B
:204FD0006FF0020700F0838084F82C002078618800EB80000918143188B2216A884743494C
:204FF000086030B92846406808F03CFC4FF0FF376DE08A46628823786088DAF8001026788B
:205010009F1800EB0109781800F1040806EB460002EB430786187F18C0187618801840184E
:2050300000F11005204605F065FD2078C01C8010C9F800002078C01C8010C8F8000020787C
:205050000837C01C8010386020780C36C01C801030602078C01C801028602278594609F168
:20507000040003F097F82278019908F1040003F091F822780299381D03F08CF800954846C9
:2050900041463A46334608F0E9FB47B222780398331D194603F07EF822780498291D03F0EF
:2050B00079F821786288DAF8000001EB81015218002104F031F9616ADAF8000088470C4843
:2050D000406808F0CFFBF8B2992808BF002784F82C70384606E01CB16FF0010084F82C00AC
:2050F0006FF0010005B0BDE8F08FC046884F0020401C00202DE9F843614C5A4D5A4EDFF8CA
:2051100070815E4F94F8E4100846401E0B2864D8DFE800F07B2C43062343062343067664ED
:20513000042907D001220A2945F8212C14BF0220032004E0202045F8210C0120024684F8F0
:20515000E200002045F8390C0827C5F8FF7FC5F8F37F45F8392CBDE8F883052914BF092036
:205170000620002784F8E400376075E094F8E170383D0120002FC5F81B0004BF0620002102
:2051900002D00021F160032084F8E400032045F8010C3160306880085ED294F8E4103348EF
:2051B000012703290ED00068456800216022052300914046A84794F8E400062814BF0A202C
:2051D0000720CFE700684568002160220523022000904046A8470420C4E7FEE72548264F45
:2051F0000026012506600E203D6002F0E5F9022006F0C0FB84F8E45084F8E360BDE8F883F0
:20521000002038600C25786024E04FF08059D9F8A0010168202088472C3D0F2045F8010CD5
:2052300041F61D56C5F80360D9F8A401466800214FF4C0720723022540460095B047D9F8A6
:20525000A401C66800214FF4C07207234046B0470120386084F8E45004F1780008F0EBF87D
:20527000BDE8F88339400C4038600C40A401001000A00C402C500C4004800C4034600C403C
:20529000741500202DE9F04F88468246ADF1AC0D299208F027FB5C4CE67894F80BB0A57AD2
:2052B00094F80C90071C00F0AB8068460021A42208F0F5F82801279A55498DF8046005F098
:2052D000030300F4807605F00405ADF800A0B9F1020F01EA020143EA01024C4B8DF8A0B046
:2052F00046EA020100F4C06603EA010246EA020045EA00054FF00000279508BF01208DF893
:20531000370008F0A7FA412809DB207B00280CBF002008209DF8991008438DF89900607B08
:20533000002804BF00208DF8380017D001208DF8380004F1860120220DF1390007F016FDD1
:205350000DF1590004F1A601202207F00FFD0DF1790004F1C601202207F008FDA07940B18A
:205370008DF8260004F1500110220DF1270007F0FDFC66793EB104F16000B91D0622054679
:2053900007F070FA68B92079002804BF00208DF8050015D08DF8050004F140010DF10600A4
:2053B0000BE08DF805600DF1060005F11601102207F0DCFC0DF11600A91D102207F0D6FC21
:2053D000E07930B1B8F1000F03D0279941F002012791002100B10121A7789DF89900002FDC
:2053F00041EA00018DF899100CBF002004209DF89910084329998DF89900684608F026FA05
:205410002BB0BDE8F08FC046EC120020FBF9FFFFFCFEFFFF0FB42DE9F04106AF8046ADF14C
:20543000280D07F091FF3E1D26F00306361D30F0010001D107F0EEFCCDF81A601420ADF8E7
:2054500016000025CDF80E50FF248DF818407B68CDF81E3008F0F6F9064607F075FF30F02A
:20547000010015D007F0A6FB4D492A468446062031F80C7F4FB14B681B689E4204D0401EAC
:2054900002F10102F4D100E0D4B2604607F0CDFC404606F03BFA0146FF2905D020460322F5
:2054B0000DF11A0304F068FC08F0CCF906F0F4FBA8460746CDF8008007F046FF30F00100EA
:2054D00063D0002F61D041F2883001A906F0B4FB009C002853D108F0B1F901990126451847
:2054F0007868019B41464FF00052FBF707F900282BD00DF122000DF1230102AA04F060FDB4
:20551000B0B99DF8220003A906F0AEFB38B9029A07F0FCFE00281CBF029C464615D10299E4
:20553000684606F08FFD78684FF0005108F04AFA0198B0F1FF3FD3D00028D1D008F07EF92C
:20555000281A02D00199814217D207F061FA07F10805009F07F02EFB01463FB13A4652F8CA
:205570000C0C40B9286842F80C0C2F60084607F05CFC304603E00246F1E70190B0E720B982
:205590002CB1204607F02CFF01E007F043FCDDF81A0000680AB0BDE8F04104B07047C04627
:2055B000DC16002070B5414C414B2568186855F8183F00224FF0FF3198473E483E4A416BB0
:2055D0003E4C88683E4D41791170002608F032F93C4808F02BF908F025F93B48026800216E
:2055F0005171A02301680722CB804A720321026811720021036859770268D176036883F879
:205610005C10012102681177036883F85D100021006880F85E100EE06068F6B24FF4C07166
:20563000714308444279012A04D1304607F09EFC08F0F4F8761C2978F0B28842ECD308F05E
:20565000E9F82248224A0178117005F0D1FE08F0DDF82049204A00200870002111700120CA
:205670001E4A10701E4A11701E4A10704FF4A4701D4A11701D4A11701D4A11701D4A11805A
:205690001B211D4A1180FB211C4A108040F648001B4A11801B4A10801B4A11801B4A108060
:2056B00008F0B0F81A490020087070BDF04E0020EC4E002090E90000714F0020684E00202B
:2056D0007B4F0020CC470020104F00206D4F00207A4F0020734F0020744F0020754F0020B0
:2056F000764F0020774F0020784F0020794F0020A5240020524F0020444F0020464F0020EE
:20571000484F00204A4F00204C4F00204E4F00206F4F00202DE9FF4104466668A7680D46E3
:2057300007F091FE3178012903D108F047F900208FE00121317008F041F928787070687810
:20575000B07068687060A868B060E868F06028693061287D3075687D7075A87DB075A86928
:20577000B061287F3077687F7077A87FB0774FF00008C6F82080C6F8308045467562756351
:20579000B562B56386F82C50102386F83C3086F82D5086F83D50786801F0C8FF204602F0BD
:2057B00077F8204602F0DCFD60B9386806F0CAFF786801F001FF07F046FE357008F0FEF822
:2057D0002C4645E0684607F055FC0094387B224A0190B9686B4606F1800005F035FD6846CA
:2057F00007F068FC00941D4938696A46029006F19C0005F0C1FDB07830B906F1D0002946D4
:2058100006F062FC16483061707830B906F1EC00294606F059FC1348F060684607F0D7FDA3
:2058300001958DF800501049029406F584700A226B4605F03BF9B969FA6906F1400007F056
:20585000E5FB0A4A06F16C000421234606F040FD20460090BDE8FF81D961000089B600004C
:20587000D7D30000CFD30000F18B0000D5D10000F0B5514C20780D46E90BADF11C0DC903F6
:2058900072D1A80860D2E069216A6A080ED2E80828BF85F0040580F08C80680904D303F0A1
:2058B00075FD85F0100584E0002083E0868861B904F11600414A00904FF6FF7102230120AC
:2058D00007F09CFF0146216221B304A800900027019702230293FF220392E28A30460DF13D
:2058F0001203FEF707FB58B99DF813009DF81220216A12EB002204D04989304605F0E2FA75
:20591000216AE28A08463B464FF6FF7107F0FAFF01462162A069002918BF85F001051AD1D3
:2059300068B143685BB1E0698088012100229847A069E7694368B88803210022984707F0B3
:20595000D7F885F0010534E000200146FEF7B6FE18B185F00205012102E0022185F00205E1
:20597000207801F0C9FD24E002F094FF071C1ED038780126B03811D0401E02D01F3808D02F
:2059900011E0387978B97888F9883A8905F09AFA0AE03846FEF7B2FC064604E0397907F172
:2059B0000800FAF7AFFE16B1384606F06BFF85F40045A8B207B0F0BDEC1200201CE60000F0
:2059D0002DE9FE430AAFADF808303B8815460E460246002B18BF0B2040F089807168487811
:2059F0000F78DFF81091002407EB002742F64D20B84267D0A0F11B01B94263D0411EB94250
:205A10004CD042F60218B84516D0401CB8426AD1BDF80800012853D1297831F001004DD1A9
:205A3000F0680170287800280CBF02200320494609684968884756E00093BDF80830104629
:205A500031462A4604F0FCF9041C4FD16978287800EB012C71894F46A7F11800867947699F
:205A7000002E40D07B6813B15A89914205D0761E0C37F6B2002EF5D135E0002F33D0BCF13F
:205A9000010F0CBF02230323806902AA066800920195797A387A4246B04724E0BDF80800C0
:205AB00001280DD1287830F0010107D1494609684968224600B101221046BBE7802415E0B7
:205AD0000D2413E0708905F0EDFE60B14946096802AB0E6800930195027A417A2346104666
:205AF0003A46B04704460CB907F08CF82046BDE8FE83C046E80B00202DE9FF47484C94F874
:205B1000E700002876D13D4801273D4D006884F8E770EE7C84F8E6606B68C4F81031C0F3FE
:205B3000801084F8E800684607F051FC002604F10C0001966B468DF8006032490296324690
:205B500004F0B4FF304904F130006B46324604F0ADFF2E4904F154006B468146324604F083
:205B7000A5FFA96838468847DFF8B08028482A7D08F104030078284D1868C0F3815A22B127
:205B9000BAF1030F04D184F8E170BAF1030F17D0BAF1020F14D0BAF1010F0ED0022006F0A1
:205BB00093F81C480068016804208847012804D028683221B1FBF0F10DE005F073FC12E072
:205BD000022006F081F8BAF1030F0CBF4FF47A7142F210712868B1FBF0F1484607F029FCF2
:205BF000484607F028FC40460068C00802D2304606F06AF800200090BDE8FF87141009404C
:205C100010E800008FC20000497D0000B1970000A6240020E001001090240020B03F00502F
:205C3000741500202DE9F84F5FEA00091C46924600917DD0081C7BD0BAF1000F78D0002C47
:205C50007BD0206A002873D03F4D616A281D006800296DD0A16A07F009FE40B2002808BFA0
:205C70006FF002055FD084F82C002078618800EB400009180C3188B2216A88473149AB46CE
:205C9000086030B9DBF8040007F0ECFD4FF0FF3549E08846668865882178D8F800008F1996
:205CB0002D183F1806EB41063618204604F022FF2078C01C8010286020783F1DC01C80104B
:205CD000386020780836C01C8010306022784946281D02F05FFA28463A463346014607F0EC
:205CF00089FD45B2227800983B1D194602F052FA22785046311D02F04DFA21786288D8F8E6
:205D1000000001EB41015218002103F005FB616AD8F800008847DBF8040007F0A3FDE8B255
:205D3000992808BF002584F82C502846BDE8F88F1CB16FF0010084F82C006FF00100BDE83A
:205D5000F88FC046884F0020401C00202DE9F0410746FF2F1ED107F0C7FA10F0070F16D0CE
:205D7000042005F0C1FC08B104200AE0012005F0BBFC08B1012004E0022005F0B5FC20B152
:205D90000220BDE8F04105F0CBBC06F0BFFE0020BDE8F08105F0C4FC8046012FD8F80450C7
:205DB000334E04D0022F29D0042F3DD0EFE7022005F09AFC80B1022005F0B2FC074601202D
:205DD0007C6805F091FC28B1A0683118A86807F0E9FD88B13846DBE7042005F085FC28B14A
:205DF000042005F09DFC0746012026E0012005F07BFC08B94FF000084046C9E7042005F089
:205E100073FC28B1042005F08BFC0746022014E0012005F069FC28B1012005F081FC0746F3
:205E300002200AE00220E2E7012005F05DFC88B1012005F075FC074604207C6805F054FC92
:205E50000028C7D0A0683118A86807F0ABFD0028C0D1D1E7022005F047FC30B1022005F0B0
:205E70005FFC074604207C68E8E70420BFE700BF589EFFFF2DE9F043454E0546307CADF1A5
:205E90004C0DA84209D13078012105F0C1FD3078022105F0BDFD06F02BFE6C0004EB8504DB
:205EB0000E210FAA04F1200004F120075FFA80F9F8B206F073FD002865D10FA8FF2106227A
:205ED00006F092FE00285ED168461C2207F0E7FA07A8FF21102207F0E2FA04F123001021F4
:205EF0000BAAC0B2804606F059FD90B929480778FF2110220BA806F077FE50B93FB99DF81A
:205F100042000FA900F0010007F0E4FC01E00120B0740FA8FF210E2207F0C1FA48460E2113
:205F30000FAA00F0DFFB06461C216A4604F12100C0B200F0D7FB1C216A46064304F12200FE
:205F5000C0B200F0CFFB10216A460643404600F0C9FB10216A46064304F12400C0B200F0FC
:205F7000C1FB04F1250704216A460643F8B200F0B9FB7035102107AA40EA0604E8B200F083
:205F9000B1FB204300E0002013B0BDE8F083C046EC1200205A4F00202DE9FC4705466E68A0
:205FB000D5F80880B76B002F18BF4FF0FF307BD131630024F477171C74631BD006F1400942
:205FD00007F041FA82466946484605F05CF900281ED4504607F0F2FC9DF80000316B0870F2
:205FF000306B736B7F1E00F10100306303F101007063E5D17078726B316B0128A1EB02015F
:20601000316303D1F36828469847726B14464AE0B763504607F0D2FC07F015FA244D0746C6
:20603000287820B9022005F04FFE01202870384607F0C4FC1D49086840F400700860D8F8D3
:206050000010886B40F4FA608863707808BB716806F1EC07384606F0E2FFB8B1B4633846F3
:20607000214606F0DCFF88B107F0EDF90746287818B1022005F07EFC2C70384607F09EFCD0
:206090001027716B306BF777401A3063706BBDE8FC8796F82D0030B1706B20B1B46306F18E
:2060B0009C0007F0F0F92046BDE8FC87301000409E2400202DE9FE4305F06AFBDFF8048157
:2060D000814608F1020000880027001F84B2042C5ADBFF254FF6FF7620466946042205F077
:2060F0007BFDBDF800309E4237D0002B35D0D80BC2032FD19D422DD0381FDDB280B2042854
:2061100015DBB0F5805F12DA00F18852126801A90A60BDF804108D4207D0BDF80610401A22
:20613000001F80B20428ECDA01E0012300E00023BDF802001BBB211A001D8BB282B207F1B6
:206150008851184605F048FDBDF80200C119091D8FB214E0BDF8020011E0BDF8020003462A
:206170006FF30E0363B9011D8C4208DA002006F0CDFC484606F0AEFC0020BDE8FE83241A21
:20619000241FA4B2042CA7DA05F01EF83FB10C484FF088513A4607F0E3F806F005FF484664
:2061B00006F098FC4246507800281CBF0020011C03D1C7F58054391DA0B25180BDE8FE83B2
:2061D00004E00100941900202DE9F8438146D9F808703868066CD9F8045046646A6CAB6CCE
:2061F000A86B16F4F06F0146A2EB03082ED1F00919D2700961D389B195F83C40641EA142FC
:2062100098BF0C1C4846214605F0D8FEA86B001BA86352D105F19C0007F035F94846414607
:2062300006F0F6F849E00029F8D0484605F0C6FE95F82D10A86311B900283ED101E0002032
:20625000A86305F19C0007F01EF936E0F20A19D24FF00008444602E0A86B401EA86340B364
:206270004846012105F0AAFE3868446814F00F04C0F80480F0D0286B401E2863686B401EB5
:20629000686316E0386844680022202904F00F044260CCBF20270F1C4846394605F08EFE42
:2062B000C7F12007B845C8BFB8464846414606F0AFF8EC77484603F091FCB0090BD3A96AA0
:2062D00049B10F46484605F090FEA86218B94846391D04F0DFFABDE8F8832DE9FE430E46F7
:2062F000814630887188814201D3010001D1012074E00021ADF80410029100244FF6FF78EA
:2063100027E00294287802283AD1BDF8007001218DF80610BF082878022861D1698904F868
:20633000011B02226889000A04F8010B2046696806F01CFDA41CBDF80400401CADF8040046
:20635000B9B2BDF8040088424AD26889404547D0401C0021009100237188002280B207F021
:206370004DFA05003CD0BDF8040010BB6B4642460521484607F02AFB0400C2D111202DE053
:2063900002208DF806001221BDF8000090FBF1F72978102924D1688904F8010B10226889FA
:2063B000000A04F8010B2046696806F0DFFC1034C1E79DF806000128EAD1ACE701A948467D
:2063D00007F014FA48B101AB05221621484607F009FA10B1029804F043FB0020BDE8FE834A
:2063F000BDF804000028E9D10A20F7E72DE9F0413C4C243C04F14408404607F036F8071CAC
:206410006DD0B86840F603022026531C02E04068761EF6B260B15EB101888A4218BF8B4240
:20643000F5D1F9682CC820312CC149C881E849003A6A00253D627868D0B197F8270042F07F
:206450000202002300F00700401E09D0401E04D0801E08D14FF0805304E04FF0804301E055
:206470004FF000532A467E68F868B7F92410B04706F0E9FF0646B4F94A00401C6FF31F30BB
:20649000A4F84A00606C80F82750404606F0F6FB304607F093FAF868B0F99410B4F94A2020
:2064B00091421CD190F89670A7B9076897B1E2680D4912680968B2F1FF3F10D0B7FBF1F286
:2064D000012A8CBFB7FBF1F10121703006F042FEBDE8F08180F89650082002F0DBFEBDE89E
:2064F000F081C046141D0020902400202DE9FE4F8A4606460CAF97E8030098469146074632
:20651000019106F0A0FF374D8346082005F5B47494F8273033F07F0357D106F1700006F0A0
:206530008CFFB5F94800401C6FF31F30A5F84800C4F808A0019A84F82690294BC4F80480F3
:20655000B5F848002021114004F11002A08403EA07000027E660B84604F1180382E803009D
:2065700021466A4684F8277005F1380083E8800104F008FB00282CD096F89630A08C012B00
:20659000A6F8940004BF86F896706F709DF8006094F8270040F0800084F827003EB1A87988
:2065B00028B1E87818B10120E871AF716F70584607F004FA9DF8000018B1E86B08B903F058
:2065D0004DFFB4F92400BDE8FE8F401E04F128049ED1584607F0F2F96FF00100BDE8FE8F5C
:2065F000F1EFFF9FF01C00202DE9F04707467D68D7F8089090460E4606F025FF8246A86ADD
:20661000002864D105F5847006F017FF0024EC772E6250466C6207F0D1F906F014FF2F4E51
:206630003378824623B9022005F04EFB01203070504607F0C3F92A49086840F48070086022
:206650003846414605F0D1FCA862C0B93846414604F020F9A878D0B9A96805F1D00006F058
:20667000DEFCE8B1AC621020E8774946284602F005FF06F0E8FE8246307840B323E0D9F8F4
:206690000010886B40F020008863A87810B12046BDE8F087A96805F1D00006F0C0FC10B9F7
:2066B000686ABDE8F0873846414604F0F3F81020AC624946E877284602F0E0FE06F0C3FED7
:2066D0008246307818B1022005F054F93470504607F074F94FF0FF30BDE8F0879F24002002
:2066F000301000402DE9FE4F3B4D4FF0000A93460290884685F801A003F0DCFE071C1BD0A4
:20671000B8F1000F08BF544614D0ABF1010946465446384601A9012205F05EFA9DF804105F
:2067300019F8010F884205D17F1C761E04F10104BFB2EED1A0454CD06F8808F103004FF6F6
:20675000FC7440F6FC7104EA0006B819814204DA06F008FDFFF7AEFC6F88E41C46F40040A4
:20677000ADF80040BB19ADF80200694601229CB2204603F04DF8BDF80200694601226FF300
:20679000DF30ADF80200204603F042F8B0105946C2B2384603F03CF802986946012240F488
